{
  "_format": "hh-sol-artifact-1",
  "contractName": "P2PEscrow",
  "sourceName": "contracts/P2PEscrow.sol",
  "abi": [
    {
      "inputs": [
        {
          "internalType": "contract IERC20",
          "name": "stablecoin_",
          "type": "address"
        },
        {
          "internalType": "uint256",
          "name": "paymentTimeout_",
          "type": "uint256"
        }
      ],
      "stateMutability": "nonpayable",
      "type": "constructor"
    },
    {
      "inputs": [],
      "name": "InsufficientLiquidity",
      "type": "error"
    },
    {
      "inputs": [],
      "name": "InvalidAmount",
      "type": "error"
    },
    {
      "inputs": [
        {
          "internalType": "enum P2PEscrow.TradeStatus",
          "name": "current",
          "type": "uint8"
        },
        {
          "internalType": "enum P2PEscrow.TradeStatus",
          "name": "expected",
          "type": "uint8"
        }
      ],
      "name": "InvalidStatus",
      "type": "error"
    },
    {
      "inputs": [],
      "name": "ListingInactive",
      "type": "error"
    },
    {
      "inputs": [],
      "name": "ListingNotFound",
      "type": "error"
    },
    {
      "inputs": [],
      "name": "TimeoutNotReached",
      "type": "error"
    },
    {
      "inputs": [],
      "name": "TradeNotFound",
      "type": "error"
    },
    {
      "inputs": [],
      "name": "Unauthorized",
      "type": "error"
    },
    {
      "anonymous": false,
      "inputs": [
        {
          "indexed": true,
          "internalType": "uint256",
          "name": "tradeId",
          "type": "uint256"
        },
        {
          "indexed": true,
          "internalType": "address",
          "name": "seller",
          "type": "address"
        },
        {
          "indexed": false,
          "internalType": "uint256",
          "name": "amount",
          "type": "uint256"
        }
      ],
      "name": "FundsLocked",
      "type": "event"
    },
    {
      "anonymous": false,
      "inputs": [
        {
          "indexed": true,
          "internalType": "uint256",
          "name": "listingId",
          "type": "uint256"
        },
        {
          "indexed": true,
          "internalType": "address",
          "name": "seller",
          "type": "address"
        },
        {
          "indexed": false,
          "internalType": "uint256",
          "name": "amount",
          "type": "uint256"
        },
        {
          "indexed": false,
          "internalType": "uint256",
          "name": "price",
          "type": "uint256"
        }
      ],
      "name": "ListingCreated",
      "type": "event"
    },
    {
      "anonymous": false,
      "inputs": [
        {
          "indexed": true,
          "internalType": "uint256",
          "name": "listingId",
          "type": "uint256"
        }
      ],
      "name": "ListingDeactivated",
      "type": "event"
    },
    {
      "anonymous": false,
      "inputs": [
        {
          "indexed": true,
          "internalType": "uint256",
          "name": "tradeId",
          "type": "uint256"
        },
        {
          "indexed": true,
          "internalType": "address",
          "name": "buyer",
          "type": "address"
        },
        {
          "indexed": false,
          "internalType": "uint256",
          "name": "timeout",
          "type": "uint256"
        }
      ],
      "name": "TradeMarkedPaid",
      "type": "event"
    },
    {
      "anonymous": false,
      "inputs": [
        {
          "indexed": true,
          "internalType": "uint256",
          "name": "tradeId",
          "type": "uint256"
        },
        {
          "indexed": true,
          "internalType": "address",
          "name": "seller",
          "type": "address"
        },
        {
          "indexed": false,
          "internalType": "uint256",
          "name": "amount",
          "type": "uint256"
        }
      ],
      "name": "TradeRefunded",
      "type": "event"
    },
    {
      "anonymous": false,
      "inputs": [
        {
          "indexed": true,
          "internalType": "uint256",
          "name": "tradeId",
          "type": "uint256"
        },
        {
          "indexed": true,
          "internalType": "address",
          "name": "buyer",
          "type": "address"
        },
        {
          "indexed": false,
          "internalType": "uint256",
          "name": "amount",
          "type": "uint256"
        }
      ],
      "name": "TradeReleased",
      "type": "event"
    },
    {
      "anonymous": false,
      "inputs": [
        {
          "indexed": true,
          "internalType": "uint256",
          "name": "tradeId",
          "type": "uint256"
        },
        {
          "indexed": true,
          "internalType": "uint256",
          "name": "listingId",
          "type": "uint256"
        },
        {
          "indexed": true,
          "internalType": "address",
          "name": "buyer",
          "type": "address"
        },
        {
          "indexed": false,
          "internalType": "uint256",
          "name": "amount",
          "type": "uint256"
        }
      ],
      "name": "TradeStarted",
      "type": "event"
    },
    {
      "inputs": [
        {
          "internalType": "uint256",
          "name": "tradeId",
          "type": "uint256"
        }
      ],
      "name": "buyerMarkPaid",
      "outputs": [],
      "stateMutability": "nonpayable",
      "type": "function"
    },
    {
      "inputs": [
        {
          "internalType": "uint256",
          "name": "amount",
          "type": "uint256"
        },
        {
          "internalType": "uint256",
          "name": "price",
          "type": "uint256"
        }
      ],
      "name": "createListing",
      "outputs": [
        {
          "internalType": "uint256",
          "name": "listingId",
          "type": "uint256"
        }
      ],
      "stateMutability": "nonpayable",
      "type": "function"
    },
    {
      "inputs": [
        {
          "internalType": "uint256",
          "name": "listingId",
          "type": "uint256"
        }
      ],
      "name": "deactivateListing",
      "outputs": [],
      "stateMutability": "nonpayable",
      "type": "function"
    },
    {
      "inputs": [
        {
          "internalType": "uint256",
          "name": "listingId",
          "type": "uint256"
        }
      ],
      "name": "getListing",
      "outputs": [
        {
          "components": [
            {
              "internalType": "uint256",
              "name": "id",
              "type": "uint256"
            },
            {
              "internalType": "address",
              "name": "seller",
              "type": "address"
            },
            {
              "internalType": "uint256",
              "name": "availableAmount",
              "type": "uint256"
            },
            {
              "internalType": "uint256",
              "name": "price",
              "type": "uint256"
            },
            {
              "internalType": "bool",
              "name": "active",
              "type": "bool"
            }
          ],
          "internalType": "struct P2PEscrow.Listing",
          "name": "",
          "type": "tuple"
        }
      ],
      "stateMutability": "view",
      "type": "function"
    },
    {
      "inputs": [],
      "name": "getListings",
      "outputs": [
        {
          "components": [
            {
              "internalType": "uint256",
              "name": "id",
              "type": "uint256"
            },
            {
              "internalType": "address",
              "name": "seller",
              "type": "address"
            },
            {
              "internalType": "uint256",
              "name": "availableAmount",
              "type": "uint256"
            },
            {
              "internalType": "uint256",
              "name": "price",
              "type": "uint256"
            },
            {
              "internalType": "bool",
              "name": "active",
              "type": "bool"
            }
          ],
          "internalType": "struct P2PEscrow.Listing[]",
          "name": "",
          "type": "tuple[]"
        }
      ],
      "stateMutability": "view",
      "type": "function"
    },
    {
      "inputs": [
        {
          "internalType": "uint256",
          "name": "tradeId",
          "type": "uint256"
        }
      ],
      "name": "getTrade",
      "outputs": [
        {
          "components": [
            {
              "internalType": "uint256",
              "name": "id",
              "type": "uint256"
            },
            {
              "internalType": "uint256",
              "name": "listingId",
              "type": "uint256"
            },
            {
              "internalType": "address",
              "name": "seller",
              "type": "address"
            },
            {
              "internalType": "address",
              "name": "buyer",
              "type": "address"
            },
            {
              "internalType": "uint256",
              "name": "amount",
              "type": "uint256"
            },
            {
              "internalType": "uint256",
              "name": "timeout",
              "type": "uint256"
            },
            {
              "internalType": "enum P2PEscrow.TradeStatus",
              "name": "status",
              "type": "uint8"
            }
          ],
          "internalType": "struct P2PEscrow.Trade",
          "name": "",
          "type": "tuple"
        }
      ],
      "stateMutability": "view",
      "type": "function"
    },
    {
      "inputs": [
        {
          "internalType": "address",
          "name": "user",
          "type": "address"
        }
      ],
      "name": "getTradesForUser",
      "outputs": [
        {
          "components": [
            {
              "internalType": "uint256",
              "name": "id",
              "type": "uint256"
            },
            {
              "internalType": "uint256",
              "name": "listingId",
              "type": "uint256"
            },
            {
              "internalType": "address",
              "name": "seller",
              "type": "address"
            },
            {
              "internalType": "address",
              "name": "buyer",
              "type": "address"
            },
            {
              "internalType": "uint256",
              "name": "amount",
              "type": "uint256"
            },
            {
              "internalType": "uint256",
              "name": "timeout",
              "type": "uint256"
            },
            {
              "internalType": "enum P2PEscrow.TradeStatus",
              "name": "status",
              "type": "uint8"
            }
          ],
          "internalType": "struct P2PEscrow.Trade[]",
          "name": "",
          "type": "tuple[]"
        }
      ],
      "stateMutability": "view",
      "type": "function"
    },
    {
      "inputs": [],
      "name": "listingCounter",
      "outputs": [
        {
          "internalType": "uint256",
          "name": "",
          "type": "uint256"
        }
      ],
      "stateMutability": "view",
      "type": "function"
    },
    {
      "inputs": [],
      "name": "paymentTimeout",
      "outputs": [
        {
          "internalType": "uint256",
          "name": "",
          "type": "uint256"
        }
      ],
      "stateMutability": "view",
      "type": "function"
    },
    {
      "inputs": [
        {
          "internalType": "uint256",
          "name": "tradeId",
          "type": "uint256"
        }
      ],
      "name": "sellerLockFunds",
      "outputs": [],
      "stateMutability": "nonpayable",
      "type": "function"
    },
    {
      "inputs": [
        {
          "internalType": "uint256",
          "name": "tradeId",
          "type": "uint256"
        }
      ],
      "name": "sellerRelease",
      "outputs": [],
      "stateMutability": "nonpayable",
      "type": "function"
    },
    {
      "inputs": [],
      "name": "stablecoin",
      "outputs": [
        {
          "internalType": "contract IERC20",
          "name": "",
          "type": "address"
        }
      ],
      "stateMutability": "view",
      "type": "function"
    },
    {
      "inputs": [
        {
          "internalType": "uint256",
          "name": "listingId",
          "type": "uint256"
        },
        {
          "internalType": "uint256",
          "name": "amountRequested",
          "type": "uint256"
        }
      ],
      "name": "startTrade",
      "outputs": [
        {
          "internalType": "uint256",
          "name": "tradeId",
          "type": "uint256"
        }
      ],
      "stateMutability": "nonpayable",
      "type": "function"
    },
    {
      "inputs": [],
      "name": "tradeCounter",
      "outputs": [
        {
          "internalType": "uint256",
          "name": "",
          "type": "uint256"
        }
      ],
      "stateMutability": "view",
      "type": "function"
    },
    {
      "inputs": [
        {
          "internalType": "uint256",
          "name": "tradeId",
          "type": "uint256"
        }
      ],
      "name": "triggerTimeoutRefund",
      "outputs": [],
      "stateMutability": "nonpayable",
      "type": "function"
    }
  ],
  "bytecode": "0x60c0604052600160045534801561001557600080fd5b50604051611665380380611665833981016040819052610034916100eb565b6001600160a01b03821661008f5760405162461bcd60e51b815260206004820152601360248201527f737461626c65636f696e2072657175697265640000000000000000000000000060448201526064015b60405180910390fd5b61012c8110156100d55760405162461bcd60e51b81526020600482015260116024820152701d1a5b595bdd5d081d1bdbc81cda1bdc9d607a1b6044820152606401610086565b6001600160a01b0390911660805260a052610125565b600080604083850312156100fe57600080fd5b82516001600160a01b038116811461011557600080fd5b6020939093015192949293505050565b60805160a0516114ff6101666000396000818161015d015261100a01526000818161023601528181610a6001528181610c610152610e5f01526114ff6000f3fe608060405234801561001057600080fd5b50600436106100f55760003560e01c80639ca19d7411610097578063e370c52e11610066578063e370c52e1461020b578063e85c88761461021e578063e9cbd82214610231578063f1b2d6a31461027057600080fd5b80639ca19d74146101b2578063a79123a9146101d2578063c29b06e7146101e5578063d34cb5cc146101f857600080fd5b806353912a9f116100d357806353912a9f14610158578063660d15b51461018d578063674a0579146101965780636c2c9c7d146101a957600080fd5b8063107a274a146100fa5780632db25e05146101235780633b8d915f14610143575b600080fd5b61010d610108366004611205565b610285565b60405161011a9190611256565b60405180910390f35b610136610131366004611205565b610308565b60405161011a91906112f7565b610156610151366004611205565b6103ca565b005b61017f7f000000000000000000000000000000000000000000000000000000000000000081565b60405190815260200161011a565b61017f60015481565b61017f6101a4366004611305565b61046a565b61017f60005481565b6101c56101c0366004611327565b61066c565b60405161011a9190611357565b61017f6101e0366004611305565b61084d565b6101566101f3366004611205565b61094b565b610156610206366004611205565b610b66565b610156610219366004611205565b610d5b565b61015661022c366004611205565b610f55565b6102587f000000000000000000000000000000000000000000000000000000000000000081565b6040516001600160a01b03909116815260200161011a565b610278611071565b60405161011a91906113a5565b61028d61116c565b600082815260026020818152604092839020835160a0810185528154815260018201546001600160a01b031692810183905292810154938301939093526003830154606083015260049092015460ff16151560808201529061030257604051630fc87cc760e31b815260040160405180910390fd5b92915050565b6103106111a6565b6000828152600360208181526040808420815160e0810183528154815260018201549381019390935260028101546001600160a01b0390811692840192909252928301541660608201526004820154608082015260058083015460a0830152600683015491929160c084019160ff9091169081111561039157610391611264565b60058111156103a2576103a2611264565b9052508051909150600003610302576040516318c2eb8160e21b815260040160405180910390fd5b600081815260026020526040902060018101546001600160a01b031661040357604051630fc87cc760e31b815260040160405180910390fd5b60018101546001600160a01b0316331461042f576040516282b42960e81b815260040160405180910390fd5b60048101805460ff1916905560405182907fe8a884965a7fb1b7c1efd55ff478bcbd880c4b226a2e2218b83d31c493964ab390600090a25050565b60008160000361048d5760405163162908e360e11b815260040160405180910390fd5b600083815260026020526040902060018101546001600160a01b03166104c657604051630fc87cc760e31b815260040160405180910390fd5b600481015460ff166104eb57604051631a319ff960e31b815260040160405180910390fd5b82816002015410156105105760405163bb55fd2760e01b815260040160405180910390fd5b8281600201600082825461052491906113fd565b909155505060028101546000036105425760048101805460ff191690555b60016000815461055190611410565b91829055506040805160e08101825282815260208082018881526001868101546001600160a01b039081168587019081523360608701908152608087018c8152600060a0890181815260c08a018781528c83526003998a90529a9091208951815596518787015592516002870180549186166001600160a01b03199283161790559151968601805497909416969091169590951790915592516004830155915160058083019190915593516006820180549698509395919490939260ff199092169190849081111561062557610625611264565b021790555050604051848152339150859084907f0913655ab75e15cb1ee216f7b89764f2f17d364a45b9e817c6e0adb35ed140719060200160405180910390a45092915050565b6060600060015b60015481116106dd57600081815260036020526040902060028101546001600160a01b03868116911614806106b7575060038101546001600160a01b038681169116145b156106ca57826106c681611410565b9350505b50806106d581611410565b915050610673565b5060008167ffffffffffffffff8111156106f9576106f9611429565b60405190808252806020026020018201604052801561073257816020015b61071f6111a6565b8152602001906001900390816107175790505b509050600060015b600154811161084357600081815260036020526040902060028101546001600160a01b038881169116148061077e575060038101546001600160a01b038881169116145b15610830576040805160e081018252825481526001830154602082015260028301546001600160a01b0390811692820192909252600383015490911660608201526004820154608082015260058083015460a08301526006830154839160c084019160ff16908111156107f3576107f3611264565b600581111561080457610804611264565b905250848461081281611410565b9550815181106108245761082461143f565b60200260200101819052505b508061083b81611410565b91505061073a565b5090949350505050565b6000826000036108705760405163162908e360e11b815260040160405180910390fd5b600080815461087e90611410565b91829055506040805160a0810182528281523360208083018281528385018981526060850189815260016080870181815260008a81526002808852908a902098518955945191880180546001600160a01b0319166001600160a01b039093169290921790915591519286019290925590516003850155516004909301805460ff191693151593909317909255825187815291820186905292935083917f12dc294b81a709d694b1337a350a12a00076c19a77a25aab67a5f0c07e0f164d910160405180910390a392915050565b6002600454036109765760405162461bcd60e51b815260040161096d90611455565b60405180910390fd5b6002600455600081815260036020526040812080549091036109ab576040516318c2eb8160e21b815260040160405180910390fd5b60028101546001600160a01b031633146109d7576040516282b42960e81b815260040160405180910390fd5b6003600682015460ff1660058111156109f2576109f2611264565b14610a1c57600681015460405163f924664d60e01b815261096d9160ff1690600390600401611479565b60068101805460ff1916600490811790915560038201548183015460405163a9059cbb60e01b81526001600160a01b039283169381019390935260248301526000917f00000000000000000000000000000000000000000000000000000000000000009091169063a9059cbb906044016020604051808303816000875af1158015610aab573d6000803e3d6000fd5b505050506040513d601f19601f82011682018060405250810190610acf9190611494565b905080610b105760405162461bcd60e51b815260206004820152600f60248201526e1d1c985b9cd9995c8819985a5b1959608a1b604482015260640161096d565b600382015460048301546040519081526001600160a01b039091169084907fd6b71cdee6da01f1be360a9605e57af86f275e1242ec1173957547571a93cdb3906020015b60405180910390a35050600160045550565b600260045403610b885760405162461bcd60e51b815260040161096d90611455565b600260045560008181526003602052604081208054909103610bbd576040516318c2eb8160e21b815260040160405180910390fd5b60028101546001600160a01b03163314610be9576040516282b42960e81b815260040160405180910390fd5b6001600682015460ff166005811115610c0457610c04611264565b14610c2e57600681015460405163f924664d60e01b815261096d9160ff1690600190600401611479565b6004808201546040516323b872dd60e01b8152339281019290925230602483015260448201526000906001600160a01b037f000000000000000000000000000000000000000000000000000000000000000016906323b872dd906064016020604051808303816000875af1158015610caa573d6000803e3d6000fd5b505050506040513d601f19601f82011682018060405250810190610cce9190611494565b905080610d135760405162461bcd60e51b81526020600482015260136024820152721d1c985b9cd9995c919c9bdb4819985a5b1959606a1b604482015260640161096d565b60068201805460ff191660021790556004820154604051908152339084907f091ca0f1322e686f805f4edc01ff8bffb2dbe2d17568b31531060c1d723aad8f90602001610b54565b600260045403610d7d5760405162461bcd60e51b815260040161096d90611455565b600260045560008181526003602052604081208054909103610db2576040516318c2eb8160e21b815260040160405180910390fd5b6003600682015460ff166005811115610dcd57610dcd611264565b14610df757600681015460405163f924664d60e01b815261096d9160ff1690600390600401611479565b8060050154421015610e1c576040516326c015ab60e21b815260040160405180910390fd5b60068101805460ff19166005179055600281015460048083015460405163a9059cbb60e01b81526001600160a01b039384169281019290925260248201526000917f0000000000000000000000000000000000000000000000000000000000000000169063a9059cbb906044016020604051808303816000875af1158015610ea8573d6000803e3d6000fd5b505050506040513d601f19601f82011682018060405250810190610ecc9190611494565b905080610f0d5760405162461bcd60e51b815260206004820152600f60248201526e1d1c985b9cd9995c8819985a5b1959608a1b604482015260640161096d565b600282015460048301546040519081526001600160a01b039091169084907f598cf7b1037a2cbb27645d4ef91a50ab4b13db45cc85ebd8edeea26233ea928890602001610b54565b60008181526003602052604081208054909103610f85576040516318c2eb8160e21b815260040160405180910390fd5b60038101546001600160a01b03163314610fb1576040516282b42960e81b815260040160405180910390fd5b6002600682015460ff166005811115610fcc57610fcc611264565b14610ff657600681015460405163f924664d60e01b815261096d9160ff1690600290600401611479565b60068101805460ff1916600317905561102f7f0000000000000000000000000000000000000000000000000000000000000000426114b6565b60058201819055604051908152339083907f296dfba6b64c78e73d6b7bdee5cbbf339d792bad94ec7f5f51673a68236324ea9060200160405180910390a35050565b60606000805467ffffffffffffffff81111561108f5761108f611429565b6040519080825280602002602001820160405280156110c857816020015b6110b561116c565b8152602001906001900390816110ad5790505b50905060005b60005481101561116657600260006110e78360016114b6565b81526020808201929092526040908101600020815160a0810183528154815260018201546001600160a01b031693810193909352600281015491830191909152600381015460608301526004015460ff161515608082015282518390839081106111535761115361143f565b60209081029190910101526001016110ce565b50919050565b6040518060a001604052806000815260200160006001600160a01b0316815260200160008152602001600081526020016000151581525090565b6040518060e00160405280600081526020016000815260200160006001600160a01b0316815260200160006001600160a01b0316815260200160008152602001600081526020016000600581111561120057611200611264565b905290565b60006020828403121561121757600080fd5b5035919050565b805182526020808201516001600160a01b03169083015260408082015190830152606080820151908301526080908101511515910152565b60a08101610302828461121e565b634e487b7160e01b600052602160045260246000fd5b6006811061129857634e487b7160e01b600052602160045260246000fd5b9052565b8051825260208101516020830152604081015160018060a01b03808216604085015280606084015116606085015250506080810151608083015260a081015160a083015260c08101516112f260c084018261127a565b505050565b60e08101610302828461129c565b6000806040838503121561131857600080fd5b50508035926020909101359150565b60006020828403121561133957600080fd5b81356001600160a01b038116811461135057600080fd5b9392505050565b6020808252825182820181905260009190848201906040850190845b818110156113995761138683855161129c565b9284019260e09290920191600101611373565b50909695505050505050565b6020808252825182820181905260009190848201906040850190845b81811015611399576113d483855161121e565b9284019260a092909201916001016113c1565b634e487b7160e01b600052601160045260246000fd5b81810381811115610302576103026113e7565b600060018201611422576114226113e7565b5060010190565b634e487b7160e01b600052604160045260246000fd5b634e487b7160e01b600052603260045260246000fd5b6020808252600a90820152697265656e7472616e637960b01b604082015260600190565b60408101611487828561127a565b611350602083018461127a565b6000602082840312156114a657600080fd5b8151801515811461135057600080fd5b80820180821115610302576103026113e756fea26469706673582212200db57a7d0db73b8dc883a2f9c006e0473abf4024427b986117f1c95192b8f0ee64736f6c63430008180033",
  "linkReferences": {},
  "deployedLinkReferences": {}
}